S01A00005765656B2035206F706472616368742043312E7372656320
S113000045C000004BC0000049C0000047C00000CC
S113001045C0000043C0000041C000003FC00000D4
S11300203DC000003BC0000039C0000037C00000E4
S113003035C0000033C0000031C000002FC00000F4
S11300402DC000002BC0000029C0000027C0000004
S113005025C0000023C0000021C000001FC0000014
S11300601DC000001BC0000019C0000017C0000024
S113007015C0000013C0000011C000000FC0000034
S11300800DC000000BC0000009C0000011241FBEF9
S1130090CFEFD0E1DEBFCDBF7CD0BDC0B1CF18164D
S11300A019066CF420E030E0EFECF7E03197F1F75B
S11300B000C000002F5F3F4F82179307A9F70895F0
S11300C08FEF87BBBB98C09A82E58DB908958FB92D
S11300D0779BFECF089598B321E030E002C0220F51
S11300E0331F8A95E2F72095292328BB089598B3F6
S11300F021E030E002C0220F331F8A95E2F7292B5A
S113010028BB089580E0E7DF89E0E1DF8FEFDFDFE0
S113011080E0EDDF80E0DFDF8AE0D9DF84E0D7DF55
S113012080E0E5DF80E0D7DF8BE0D1DF83E0CFDF65
S113013080E0DDDF80E0CFDF8CE0C9DF81E0C7DF76
S113014080E0D5CF0895EF92FF921F93CF93DF9372
S1130150182FD92FC1E00F2EFAE0EF2EF12CF02D3D
S113016080E0B9DF8C2FB3DF812F9D2FB7012CD016
S1130170162FD72FACDF80E0BADFCF5FC53081F711
S113018088EE93E08CDFDF91CF911F91FF90EF9089
S11301900895CF9381E087BB93DFB4DFC1E080E0B3
S11301A09ADF8C2F94DF80E092DF80E0A0DFCF5FC6
S11301B0C530A9F788EE93E072DF80E094E0C3DFF6
S11301C081E090E0CF91089597FB072E16F40094F8
S11301D006D077FD08D00BD007FC05D03EF49095EF
S11301E081959F4F0895709561957F4F0895AA1B3F
S11301F0BB1B51E107C0AA1FBB1FA617B70710F00E
S1130200A61BB70B881F991F5A95A9F7809590953F
S10D0210BC01CD010895F894FFCF5E
S9030000FC
