:1000000045C000004BC0000049C0000047C00000D0
:1000100045C0000043C0000041C000003FC00000D8
:100020003DC000003BC0000039C0000037C00000E8
:1000300035C0000033C0000031C000002FC00000F8
:100040002DC000002BC0000029C0000027C0000008
:1000500025C0000023C0000021C000001FC0000018
:100060001DC000001BC0000019C0000017C0000028
:1000700015C0000013C0000011C000000FC0000038
:100080000DC000000BC0000009C0000011241FBEFD
:10009000CFEFD0E1DEBFCDBFA8D0ECC0B1CF1816F6
:1000A00019066CF420E030E0EFECF7E03197F1F75F
:1000B00000C000002F5F3F4F82179307A9F70895F4
:1000C0008FEF87BBBB98C09A82E58DB908958FB931
:1000D000779BFECF089598B321E030E002C0220F55
:1000E000331F8A95E2F72095292328BB089598B3FA
:1000F00021E030E002C0220F331F8A95E2F7292B5E
:1001000028BB089580E0E7DF89E0E1DF8FEFDFDFE4
:1001100080E0EDDF80E0DFDF8AE0D9DF84E0D7DF59
:1001200080E0E5DF80E0D7DF8BE0D1DF83E0CFDF69
:1001300080E0DDDF80E0CFDF8CE0C9DF81E0C7DF7A
:1001400080E0D5CF0895CF92DF92FF920F931F9357
:10015000CF93DF93EC019923DCF011E00F2EFAE04E
:10016000CF2ED12CF02D80E0B6DF812FB0DFCE0175
:10017000B60159D0F62E072FAADF80E0B8DFCF2DC9
:10018000D02F1F5F153079F788EE93E088DF25C008
:1001900080E0A1DF84E09BDF8AE099DF80E0A7DFD9
:1001A000D195C195D10911E00F2EFAE0CF2ED12CB7
:1001B000F02D80E090DF812F8ADFCE01B60133D0B1
:1001C000F62E072F84DF80E092DFCF2DD02F1F5F28
:1001D000143079F788EE93E062DFDF91CF911F91C1
:1001E0000F91FF90DF90CF900895CF9381E087BB70
:1001F00067DF88DFC1E080E06EDF8C2F68DF80E0A2
:1002000066DF80E074DFCF5FC530A9F788EE93E04A
:1002100046DF80E094E097DF80E09EEF94DF81E0AE
:1002200090E0CF91089597FB072E16F4009406D026
:1002300077FD08D00BD007FC05D03EF49095819552
:100240009F4F0895709561957F4F0895AA1BBB1B22
:1002500051E107C0AA1FBB1FA617B70710F0A61BC6
:10026000B70B881F991F5A95A9F780959095BC01E7
:08027000CD010895F894FFCFC1
:00000001FF
