S00A000042352E73726563A3
S113000045C0000058C0000056C0000054C00000A5
S113001052C0000050C000004EC000004CC00000A0
S11300204AC0000048C0000046C0000044C00000B0
S113003042C0000040C000003EC000003CC00000C0
S11300403AC0000038C0000036C0000034C00000D0
S113005032C0000030C000002EC000002CC00000E0
S11300602AC0000028C0000026C0000024C00000F0
S113007022C0000020C000001EC000001CC0000000
S11300801AC0000018C0000016C0000011241FBED2
S1130090CFEFD0E1DEBFCDBF11E0A0E0B1E0E4ECF2
S11300A0F1E000E00BBF02C007900D92AE30B10743
S11300B0D9F775D085C0A4CFAB9A8FEC97E00197A0
S11300C0F1F700C00000AB988FEC97E00197F1F7CF
S11300D000C000000895CF938FEF84BB15BAC0E22F
S11300E0C5BBEADFC5BBE8DF80E885BBE5DF15BA41
S11300F0E3DF80EF85BBE0DF15BADEDF80E685BB9A
S1130100DBDFCF910895CF93C82F85BBAA9AD4DFA4
S1130110C295C07FC5BBAA9ACFDFCF910895CF9374
S1130120C82F85BBAA98C8DFC295C07FC5BBAA9853
S1130130C3DFCF9108951F93CF93DF93EC01142F66
S11301406130710531F480E8EADF8881811107C0EC
S113015016C062307105C9F780ECE1DFF6CF219655
S1130160D2DF112349F02FEF80E792E02150804045
S11301709040E1F700C0000089918111F1CFDF9137
S1130180CF911F91089581E0CADF2FE78AE196E0BD
S1130190215080409040E1F700C0000008958FEFA7
S11301A081BB99DFF0DF40E061E070E080E091E046
S11301B0C2DF41E062E070E080E091E0BCDFF2CFBA
S10701C0F894FFCFDD
S11101C45965646920796F75206172650000C9
S9030000FC
